{
  "address": "0xd16049C731E803A498DA75B6BD6C2412e0991490",
  "abi": [
    {
      "inputs": [
        {
          "internalType": "address",
          "name": "erc721Contract",
          "type": "address"
        },
        {
          "internalType": "uint256",
          "name": "tokenID",
          "type": "uint256"
        },
        {
          "internalType": "string",
          "name": "key",
          "type": "string"
        }
      ],
      "name": "latest",
      "outputs": [
        {
          "internalType": "bytes",
          "name": "value",
          "type": "bytes"
        }
      ],
      "stateMutability": "view",
      "type": "function"
    },
    {
      "inputs": [
        {
          "internalType": "address",
          "name": "erc721Contract",
          "type": "address"
        },
        {
          "internalType": "uint256",
          "name": "tokenID",
          "type": "uint256"
        },
        {
          "internalType": "string",
          "name": "key",
          "type": "string"
        },
        {
          "internalType": "bytes",
          "name": "value",
          "type": "bytes"
        }
      ],
      "name": "set",
      "outputs": [],
      "stateMutability": "nonpayable",
      "type": "function"
    },
    {
      "inputs": [
        {
          "internalType": "address",
          "name": "erc721Contract",
          "type": "address"
        },
        {
          "internalType": "uint256",
          "name": "tokenID",
          "type": "uint256"
        },
        {
          "internalType": "string",
          "name": "key",
          "type": "string"
        },
        {
          "internalType": "uint256",
          "name": "start",
          "type": "uint256"
        },
        {
          "internalType": "uint256",
          "name": "length",
          "type": "uint256"
        }
      ],
      "name": "snapshotSlice",
      "outputs": [
        {
          "internalType": "uint256[]",
          "name": "blockNumbers",
          "type": "uint256[]"
        }
      ],
      "stateMutability": "view",
      "type": "function"
    },
    {
      "inputs": [
        {
          "internalType": "address",
          "name": "erc721Contract",
          "type": "address"
        },
        {
          "internalType": "uint256",
          "name": "tokenID",
          "type": "uint256"
        },
        {
          "internalType": "string",
          "name": "key",
          "type": "string"
        },
        {
          "internalType": "uint256",
          "name": "blockNumber",
          "type": "uint256"
        }
      ],
      "name": "valueAt",
      "outputs": [
        {
          "internalType": "bytes",
          "name": "value",
          "type": "bytes"
        }
      ],
      "stateMutability": "view",
      "type": "function"
    }
  ],
  "transactionHash": "0x562ea322429fd11ea2626b98e60fe70e296803396b59a6e9f3b04fd20611822a",
  "args": [],
  "solcInputHash": "05bcf2734bccacebd221db992bb90130",
  "bytecode": "0x608060405234801561001057600080fd5b50610ccf806100206000396000f3fe608060405234801561001057600080fd5b506004361061004c5760003560e01c806323ca2d1e1461005157806373f16da6146100665780637a967f6d1461008f578063ee4aaade146100af575b600080fd5b61006461005f366004610987565b6100c2565b005b610079610074366004610a10565b6101d1565b6040516100869190610b55565b60405180910390f35b6100a261009d366004610a72565b61050c565b6040516100869190610b11565b6100796100bd36600461092d565b6105b7565b6100cc86866105c6565b60006100da878787876106b9565b6000818152602081905260409020805491925043911580610133575080548290829061010890600190610bd4565b8154811061012657634e487b7160e01b600052603260045260246000fd5b9060005260206000200154105b61018f5760405162461bcd60e51b815260206004820152602260248201527f4b65792063616e206f6e6c7920626520736574206f6e63652070657220626c6f604482015261636b60f01b60648201526084015b60405180910390fd5b805460018181018355600083815260208082209093018590558581529082526040808220858352909252206101c5908686610831565b50505050505050505050565b606060006101e1878787876106b9565b6000818152602081905260408120919250906101fd90856106f2565b6000838152602081905260409020909150816102f5576001600084815260200190815260200160002060008260008154811061024957634e487b7160e01b600052603260045260246000fd5b90600052602060002001548152602001908152602001600020805461026d90610beb565b80601f016020809104026020016040519081016040528092919081815260200182805461029990610beb565b80156102e65780601f106102bb576101008083540402835291602001916102e6565b820191906000526020600020905b8154815290600101906020018083116102c957829003601f168201915b50505050509350505050610503565b805482141561033a57600083815260016020819052604082209190839061031c9086610bd4565b8154811061024957634e487b7160e01b600052603260045260246000fd5b600081838154811061035c57634e487b7160e01b600052603260045260246000fd5b906000526020600020015490508581111561045a57600084815260016020819052604082209190849061038f9087610bd4565b815481106103ad57634e487b7160e01b600052603260045260246000fd5b9060005260206000200154815260200190815260200160002080546103d190610beb565b80601f01602080910402602001604051908101604052809291908181526020018280546103fd90610beb565b801561044a5780601f1061041f5761010080835404028352916020019161044a565b820191906000526020600020905b81548152906001019060200180831161042d57829003601f168201915b5050505050945050505050610503565b60008481526001602090815260408083208484529091529020805461047e90610beb565b80601f01602080910402602001604051908101604052809291908181526020018280546104aa90610beb565b80156104f75780601f106104cc576101008083540402835291602001916104f7565b820191906000526020600020905b8154815290600101906020018083116104da57829003601f168201915b50505050509450505050505b95945050505050565b6060600080600061051f8a8a8a8a6106b9565b8152602001908152602001600020905060005b838110156105ab57816105458683610ba8565b8154811061056357634e487b7160e01b600052603260045260246000fd5b906000526020600020015483828151811061058e57634e487b7160e01b600052603260045260246000fd5b6020908102919091010152806105a381610c26565b915050610532565b50509695505050505050565b606061050385858585436101d1565b336040516331a9108f60e11b8152600481018390526001600160a01b0391821691841690636352211e9060240160206040518083038186803b15801561060b57600080fd5b505afa15801561061f573d6000803e3d6000fd5b505050506040513d601f19601f820116820180604052508101906106439190610911565b6001600160a01b0316146106b55760405162461bcd60e51b815260206004820152603360248201527f4b6173756d61683732314f776e6572436f6e66696773234f6e7920616e206f776044820152726e6572206d61792073657420636f6e6669677360681b6064820152608401610186565b5050565b6000848484846040516020016106d29493929190610ade565b604051602081830303815290604052805190602001209050949350505050565b8154600090610703575060006107cd565b82546000905b8082101561076d57600061071d83836107d3565b90508486828154811061074057634e487b7160e01b600052603260045260246000fd5b9060005260206000200154111561075957809150610767565b610764816001610ba8565b92505b50610709565b6000821180156107b057508385610785600185610bd4565b815481106107a357634e487b7160e01b600052603260045260246000fd5b9060005260206000200154145b156107c9576107c0600183610bd4565b925050506107cd565b5090505b92915050565b600060026107e18184610c41565b6107ec600286610c41565b6107f69190610ba8565b6108009190610bc0565b61080b600284610bc0565b610816600286610bc0565b6108209190610ba8565b61082a9190610ba8565b9392505050565b82805461083d90610beb565b90600052602060002090601f01602090048101928261085f57600085556108a5565b82601f106108785782800160ff198235161785556108a5565b828001600101855582156108a5579182015b828111156108a557823582559160200191906001019061088a565b506108b19291506108b5565b5090565b5b808211156108b157600081556001016108b6565b60008083601f8401126108db578182fd5b50813567ffffffffffffffff8111156108f2578182fd5b60208301915083602082850101111561090a57600080fd5b9250929050565b600060208284031215610922578081fd5b815161082a81610c81565b60008060008060608587031215610942578283fd5b843561094d81610c81565b935060208501359250604085013567ffffffffffffffff81111561096f578283fd5b61097b878288016108ca565b95989497509550505050565b6000806000806000806080878903121561099f578182fd5b86356109aa81610c81565b955060208701359450604087013567ffffffffffffffff808211156109cd578384fd5b6109d98a838b016108ca565b909650945060608901359150808211156109f1578384fd5b506109fe89828a016108ca565b979a9699509497509295939492505050565b600080600080600060808688031215610a27578081fd5b8535610a3281610c81565b945060208601359350604086013567ffffffffffffffff811115610a54578182fd5b610a60888289016108ca565b96999598509660600135949350505050565b60008060008060008060a08789031215610a8a578182fd5b8635610a9581610c81565b955060208701359450604087013567ffffffffffffffff811115610ab7578283fd5b610ac389828a016108ca565b979a9699509760608101359660809091013595509350505050565b6bffffffffffffffffffffffff198560601b16815283601482015281836034830137600091016034019081529392505050565b6020808252825182820181905260009190848201906040850190845b81811015610b4957835183529284019291840191600101610b2d565b50909695505050505050565b6000602080835283518082850152825b81811015610b8157858101830151858201604001528201610b65565b81811115610b925783604083870101525b50601f01601f1916929092016040019392505050565b60008219821115610bbb57610bbb610c55565b500190565b600082610bcf57610bcf610c6b565b500490565b600082821015610be657610be6610c55565b500390565b600181811c90821680610bff57607f821691505b60208210811415610c2057634e487b7160e01b600052602260045260246000fd5b50919050565b6000600019821415610c3a57610c3a610c55565b5060010190565b600082610c5057610c50610c6b565b500690565b634e487b7160e01b600052601160045260246000fd5b634e487b7160e01b600052601260045260246000fd5b6001600160a01b0381168114610c9657600080fd5b5056fea264697066735822122001c0f33b1695fa098b0d28e643a3908ed999b9af4573f6d008cadfc55444fad164736f6c63430008040033",
  "devdoc": {
    "details": "KasumahOwnerConfigs is a contract that lets the current owner of an 1155 set arbitrary key/value pairs for the asset. Warning here that for *fungible* 1155 tokens, *any* owner will be able to set the k/v pairs.",
    "kind": "dev",
    "methods": {},
    "version": 1
  },
  "userdoc": {
    "kind": "user",
    "methods": {},
    "version": 1
  },
  "storageLayout": {
    "storage": [
      {
        "astId": 447,
        "contract": "contracts/Kasumah721OwnerConfigs.sol:Kasumah721OwnerConfigs",
        "label": "_keys",
        "offset": 0,
        "slot": "0",
        "type": "t_mapping(t_bytes32,t_array(t_uint256)dyn_storage)"
      },
      {
        "astId": 453,
        "contract": "contracts/Kasumah721OwnerConfigs.sol:Kasumah721OwnerConfigs",
        "label": "_values",
        "offset": 0,
        "slot": "1",
        "type": "t_mapping(t_bytes32,t_mapping(t_uint256,t_bytes_storage))"
      }
    ],
    "types": {
      "t_array(t_uint256)dyn_storage": {
        "base": "t_uint256",
        "encoding": "dynamic_array",
        "label": "uint256[]",
        "numberOfBytes": "32"
      },
      "t_bytes32": {
        "encoding": "inplace",
        "label": "bytes32",
        "numberOfBytes": "32"
      },
      "t_bytes_storage": {
        "encoding": "bytes",
        "label": "bytes",
        "numberOfBytes": "32"
      },
      "t_mapping(t_bytes32,t_array(t_uint256)dyn_storage)": {
        "encoding": "mapping",
        "key": "t_bytes32",
        "label": "mapping(bytes32 => uint256[])",
        "numberOfBytes": "32",
        "value": "t_array(t_uint256)dyn_storage"
      },
      "t_mapping(t_bytes32,t_mapping(t_uint256,t_bytes_storage))": {
        "encoding": "mapping",
        "key": "t_bytes32",
        "label": "mapping(bytes32 => mapping(uint256 => bytes))",
        "numberOfBytes": "32",
        "value": "t_mapping(t_uint256,t_bytes_storage)"
      },
      "t_mapping(t_uint256,t_bytes_storage)": {
        "encoding": "mapping",
        "key": "t_uint256",
        "label": "mapping(uint256 => bytes)",
        "numberOfBytes": "32",
        "value": "t_bytes_storage"
      },
      "t_uint256": {
        "encoding": "inplace",
        "label": "uint256",
        "numberOfBytes": "32"
      }
    }
  }
}